:020000020000FC
:0200000029C015
:0200100067C0C7
:020040004BC0B3
:100044003F065B4F666D7D077F67777C395E79710C
:10005400F894E4E4F0E00FEF0DBF08E00EBF00E811
:100064000093610004E00093610000E00093C1008C
:100074000FEF0AB900E00BB90FE004B900E005B9CD
:1000840000E007B903E008B960E030E040E071E067
:1000940081E054915BB903E005BD01E000936E007B
:1000A40004E606BD02E00093680003E000936C00E0
:1000B4007894343609F0FDCF332743954A3021F044
:1000C400319654915BB9F5CF4427E4E4F0E05491C0
:1000D4005BB9EFCF339504E606BD18957894319B50
:1000E40005C071E0309B0DC081E0189570FBD6F718
:1000F4000E947E0070E0F6CF639564FF662765B9C1
:10010400089580FB96F70E94890080E0EECF6A95FF
:0801140067FF6FE065B9089573
:00000001FF
